:10F00000C87600201D7A0200157B0200157B0200E5
:10F0100000000000000000000000000000000000F0
:10F020000000000000000000000000004D69010029
:10F030000000000000000000716A0100B96A0100D0
:10F04000157B0200157B0200157B02006D39020062
:10F05000992E0200157B020061F40000157B02006E
:10F06000A5F50000114002002940020041400200C5
:10F070005940020071400200894002006579020097
:10F08000797902008D790200394601004D46010070
:10F09000614601000000000000000000E9F20000ED
:10F0A000157B020025F40000157B0200157B020091
:10F0B0000000000010B5064C2378002B07D1054B4B
:10F0C000002B02D0044800E000BF0123237010BDD4
:10F0D000B00200200000000038860300084B10B585
:10F0E000002B03D00749084800E000BF0748036829
:10F0F000002B00D110BD064B002BFBD09847F9E741
:10F1000000000000B40200203886030038860300A7
:10F110000000000080B584B000AF78607B681B6899
:10F12000FB60FB685B7EDBB25BB2002B01DA012384
:10F1300000E000231800BD4604B080BD80B584B057
:10F1400000AF78607B681B68FB60C0467B68180076
:10F150000B4B9847031EF9D1FB681B7BDBB20222E5
:10F160001343DAB2FB681A73C0467B681800044B7D
:10F170009847031EF9D1C046BD4604B080BDC046C5
:10F1800015F1000080B584B000AF78600A00FB1C68
:10F190001A707B681B68FB60FB68FA1C12789A7512
:10F1A000C046BD4604B080BD80B584B000AF02004B
:10F1B000FB1D1A70FB1D1A78474B9200D358FB6059
:10F1C000FB681B681B7EDAB2FB681B68DB7DDBB269
:10F1D0001340DBB2BB60BB680122134045D0FB6823
:10F1E0001B6801221A76C046FB6818003B4B984703
:10F1F000031EF9D1FB685B69991CFA685161FA68D2
:10F200001268528B92B21A80FB681B8B9BB2013B37
:10F210009BB2FA68191C1183002B08D0FB685B7F36
:10F22000002B22D0FB6818002D4B98471DE0FB688F
:10F23000012118002B4B9847FB681B7FDBB2052B85
:10F2400013D1FB6800221A77FB68DB7E1A000123CA
:10F2500013400AD0FB689B7E1A000123134004D0A0
:10F26000FB689B68FA6810009847BB68042213404B
:10F2700014D0FB681B6804221A76FB68DB7E1A0038
:10F28000022313400AD0FB689B7E1A00022313401E
:10F2900004D0FB68DB68FA6810009847BB6802225C
:10F2A000134014D0FB681B6802221A76FB68DB7ED1
:10F2B0001A00042313400AD0FB689B7E1A00042323
:10F2C000134004D0FB681B69FA6810009847C046D9
:10F2D000BD4604B080BDC046BC42002015F1000010
:10F2E0003DF1000085F1000080B500AF0020024B29
:10F2F0009847C046BD4680BDA9F1000080B582B0E8
:10F3000000AF0200FB1D1A70074AFB1D1B78190095
:10F310001F230B40012199400B0019008023D1507D
:10F32000C046BD4602B080BD00E100E080B584B0BB
:10F3300000AF0200FB1D1A70FB1D1A78374B9200BC
:10F34000D358FB60FB681B68BB60BB689B79DBB272
:10F350001A00012313400ED0BB6801229A71FB688A
:10F360001433002B07D0FB685B7C002B03D0FB68B9
:10F370009B6900209847BB689B79DBB21A00022387
:10F38000134047D0BB6802229A71FB689B899BB2ED
:10F39000002B33D0FB689A68FB68DB899BB2591C51
:10F3A00088B2F968C8815B00D3181B889AB2BB6821
:10F3B0009A81FB689B899BB2013B9AB2FB689A8158
:10F3C000FB689B899BB2002B18D1FB68202200218F
:10F3D0009954BB6802221A71BB6802229A711920E3
:10F3E0000F4B9847FB681433002B07D0FB689B7CBE
:10F3F000002B03D0FB68DB6900209847FB681433BF
:10F40000002B07D0FB681B7C002B03D0FB685B69DB
:10F4100000209847C046BD4604B080BDC0420020D1
:10F42000FDF2000080B500AF0020024B9847C046B7
:10F43000BD4680BD2DF3000080B500AF024B98475C
:10F44000C046BD4680BDC046F92A020080B500AF67
:10F45000024B9847C046BD4680BDC0464D2B0200BA
:10F4600080B586B000AF494B9847494B1B8C9BB287
:10F47000DAB21723FB180F210A401A701723FB1862
:10F480001A78444B9200D3583B61414A3B691B7840
:10F490000F210B40D9B23F23D1543D490F23FB1814
:10F4A0004E228A5C1A703B691B783B4A1B01D318B9
:10F4B00002331B889BB2BB603B691B78374A1B0138
:10F4C000D31802331B889BB27B60BA687B68D21A60
:10F4D0003B695A610F23FB181B780122134016D099
:10F4E0002B4A4E230121D1543B6910225A743B69A7
:10F4F0001B7C1A000123134042D03B695B68002B40
:10F500003ED03B695B683A691000984738E00F23AA
:10F51000FB181B780222134016D01D4A4E230221ED
:10F52000D1543B6900225A743B691B7C1A000223A8
:10F53000134025D03B699B68002B21D03B699B6819
:10F540003A69100098471BE00F23FB181B78042230
:10F55000134015D00E4A4E230421D1543B69062294
:10F560005A743B691B7C1A000423134008D03B6982
:10F57000DB68002B04D03B69DB683A6910009847D0
:10F58000074B9847C046BD4606B080BD39F4000021
:10F590000048004120030020D0420020D00200207B
:10F5A0004DF4000080B582B000AF154B1B697B6045
:10F5B000144B9B693B60124B9A683B681A43104B93
:10F5C0009A60104B104A9A6108E07B685A687B6821
:10F5D0001B68180090477B689B687B607B68002BEA
:10F5E000F3D1074BDB683B60054B9B683A68D2431D
:10F5F0001A40034B9A60C046BD4602B080BDC0466B
:10F600000000002000040042FFFF0F0F80B582B011
:10F6100000AF02003960FB1D1A70FB1D1B78012B27
:10F620000AD0022B0FD0002B14D10E4B0D4A91693A
:10F630003A680A439A610FE00A4B0A4AD1693A686C
:10F640000A43DA6108E0074B064A116A3A680A433E
:10F650001A6201E0172300E000231800BD4602B043
:10F6600080BDC0460004004080B500AF02210220EA
:10F67000074B9847074B01221A70C046054B1B7871
:10F68000DBB21A0001231340F8D1C046BD4680BD4D
:10F690000DF600000004004280B584B000AF786031
:10F6A0007B681B68FB60FB68DB69072213405A1EFE
:10F6B0009341DBB21800BD4604B080BD80B582B076
:10F6C00000AF7860C0467B681800044B9847031E63
:10F6D000F9D1C046BD4602B080BDC04699F60000D3
:10F6E00080B584B000AF78607B681B68FB60FB6806
:10F6F0001B681B01DB0FDBB21A000B23FB18511E2A
:10F700008A411A700823FB187A68528B1A807B682A
:10F710009B8B9AB20823FB180821791809888A1A4A
:10F720001A807B689B8B9BB2013B9AB27B689A8361
:10F730000B23FB181B78002B10D07B68DB7A002B87
:10F740001CD07B689B8B9BB2012B17D1FB685B683D
:10F750008022D2021A43FB685A600FE07B68DB7A92
:10F76000002B0BD07B689B8B9BB2002B06D1FB68D8
:10F770005B688022D2021A43FB685A607B689B8BCD
:10F780009BB2002B0ED17B689B7A002B0AD07B6842
:10F7900018000E4B9847FB685B68C02292021A4320
:10F7A000FB685A607B681800084B98477B681A6AA8
:10F7B0000823FB181B88D318FA682821525CD2B2A0
:10F7C0001A70C046BD4604B080BDC046BDF60000FC
:10F7D00080B584B000AF78607B681B68FB60FB6815
:10F7E0005B8B9BB21A000423134004D07B68252254
:10F7F0001E21995424E00A23FB187A68528B1A8040
:10F800007B689B8B9AB20A23FB180A217918098816
:10F810008A1A1A807B689B8B9BB2013B9AB27B68E9
:10F820009A837B681800084B98477B681A6A0A23FA
:10F83000FB181B88D3181B78D9B2FB68282299546F
:10F84000BD4604B080BDC046BDF6000080B584B0A2
:10F8500000AF78607B681B68FB60FB681B7EDBB2D7
:10F860001A00012313402BD0FB6801221A76FB6893
:10F870005B8B9BB21A000223134004D07B682522C5
:10F88000412199541CE0FB685B8B9BB21A00042356
:10F89000134015D07B682522182199547B680022DB
:10F8A0009A837B689B7A002B0AD07B681800134BE5
:10F8B0009847FB685B68C02292021A43FB685A6053
:10F8C0007B689B8B9AB27B685A837B6825229B5C02
:10F8D000DBB2052B0ED17B6824229B5CDBB2002BB4
:10F8E00004D17B681800064B984703E07B6818003A
:10F8F000044B9847C046BD4604B080BDBDF600002D
:10F90000D1F70000E1F6000080B584B000AFF860E8
:10F91000B960FB1D1A70FB1D1B78FA6802339B004F
:10F92000D3180433BA681A60FB681B7EDBB25AB284
:10F93000FB1D1B78012199400B005BB213435BB2A6
:10F94000DAB2FB681A76C046BD4604B080BD00003E
:10F9500080B584B000AF786039607B681B68FB605D
:10F960003B685B7A002B06D03B689A7A7B68110073
:10F9700018001E4B9847FB685B681D4A1A40FB68DD
:10F980005A603B685A687B681A623B685A887B6891
:10F990009A837B682422002199547B6825220521C3
:10F9A0009954FB6803229A753B681B7A002B0DD093
:10F9B0003B681B885A003B685B7A9B0313431A0021
:10F9C00080231B021A43FB685A6209E03B681B88CC
:10F9D0005A003B685B7A9B0313431A00FB685A6228
:10F9E00000231800BD4604B080BDC0467941010027
:10F9F000FFFFFBFF80B582B000AF786039607B68A5
:10FA00009B8B9BB2002B01D005230CE07B6801226D
:10FA10009A727B680122DA723A687B6811001800DA
:10FA2000034B984703001800BD4602B080BDC04696
:10FA300051F9000080B586B000AF0200FB1D1A70BE
:10FA4000FB1D1A78934B9200D3587B617B691B682E
:10FA50003B613B691B681B01DB0FDBB21A000F2304
:10FA6000FB18511E8A411A700E23FB187A69527EC8
:10FA70001A707B691B7EDAB20E23FB180E217918EF
:10FA800009780A401A707B695B8B9BB2002B09D105
:10FA90007B699B8B9BB2002B04D07B6918007E4B4B
:10FAA000984770E07B695B8B9BB2002B39D07B69F8
:10FAB0009B8B9BB2002B34D17B6925229B5CDBB2F4
:10FAC000052B2ED17B6924229B5CDBB2002B28D135
:10FAD0003B6903221A757B6900225A837B692522C0
:10FAE000002199547B699B7A002B0BD07B6918000D
:10FAF0006A4B98473B695B68C02292021A433B6994
:10FB00005A6002E03B6901221A760E23FB181B782B
:10FB10000122134037D07B69DB687A69100098476F
:10FB200031E07B695B8B9BB2002B2CD07B699B8B7C
:10FB30009BB2002B27D03B695B8B9BB21A00202322
:10FB4000134011D10F23FB181B7801225340DBB265
:10FB5000002B04D17B699B8B9BB2012B04D07B696A
:10FB60002522412199540EE07B6924229B5CDBB263
:10FB7000002B04D17B691800494B984703E07B694F
:10FB80001800484B98477B695B8B9BB2002B47D092
:10FB90007B699B8B9BB2002B42D17B6925229B5CAE
:10FBA000DBB2052B3CD17B6924229B5CDBB2012BB1
:10FBB00036D13B691B7EDBB21A000223134002D010
:10FBC0003B6902221A763B6903221A757B6900227F
:10FBD0005A837B692522002199540E23FB181B7838
:10FBE000022213400BD07B6924229B5CDBB2012BE9
:10FBF00005D17B691B697A691000984710E00E23D4
:10FC0000FB181B78012213400AD07B6924229B5CDD
:10FC1000DBB2002B04D17B69DB687A69100098475E
:10FC20007B6925229B5CDBB2052B2ED07B692522CC
:10FC30009B5CDBB2002B28D03B6903221A757B69E1
:10FC400000225A837B6900229A837B6925229B5C70
:10FC5000DBB2412B0ED07B699B7A002B0AD07B69EB
:10FC600018000E4B98473B695B68E022D2021A43AA
:10FC70003B695A600E23FB181B780422134004D002
:10FC80007B695B697A6910009847C046BD4606B03B
:10FC900080BDC046385600204DF80000BDF600007B
:10FCA000D1F70000E1F6000080B500AFBFF34F8F41
:10FCB000024B034ADA60BFF34F8FFEE700ED00E02E
:10FCC0000400FA0580B500AF024B9847C046BD4618
:10FCD00080BDC046A9FC000080B586B000AF78604A
:10FCE000A64B1800A64B9847A64B1800A44B984764
:10FCF000A54B1800A24B9847A44B1800A04B98475F
:10FD0000A34B18009E4B9847A24B18009C4B98475A
:10FD1000A14B18009A4B9847A04B1800984B984756
:10FD20009F4B1800964B98479E4B1800944B984752
:10FD30009D4B1800924B98479C4B1800904B98474E
:10FD40009B4B18008E4B98471723FB1800221A7004
:10FD5000984B1800984B9847032200210120974B9D
:10FD600098470200964B1A60954B1B68002B07D1F1
:10FD7000944B19000320944B98470020934B9847CD
:10FD80000C23FB181800924B98470C23FB181B7888
:10FD90000A2B04D00C23FB181B780D2B37D18D4B6D
:10FDA0001800854B98478C4B00221A708B4B002211
:10FDB0001A708B498B4B312218008B4B9847894B1B
:10FDC0003122002199548949854B64221800884BBF
:10FDD000984703003B61854B632200219954834B74
:10FDE0001800754B98473B69002BECD11723FB1883
:10FDF00000221A707A4B3222002118007D4B98475E
:10FE00007A4B6422002118007A4B9847B5E0724B78
:10FE10001B78002B59D0714B1B78032B0CD86F4BE0
:10FE20001B785A1CD1B26D4A11701A000C23FB18B2
:10FE30001978714B995405E0674B00221A70674B93
:10FE400000221A70654B1B78012B99D96B4A6A4BBB
:10FE5000110018006A4B9847031E2FD06949604B68
:10FE60001B221800684B98475D4B1800524B98476F
:10FE70001723FB1800221A70594B32220021180058
:10FE80005C4B98475749564B31221800564B9847C0
:10FE9000534B18005D4B98470300302B06D8514B4D
:10FEA00018005A4B98470300DAB200E031221723BA
:10FEB000FB181A704A4B18003F4B9847464B0022DC
:10FEC0001A70464B00221A705AE70C23FB181B7855
:10FED0000D2B00D154E70C23FB181B78082B04D002
:10FEE0000C23FB181B787F2B1CD10823FB18484AD6
:10FEF00012681A600823FB1818002F4B9847172325
:10FF0000FB181B78002B37D01723FB181A78172300
:10FF1000FB18013A1A701723FB181B78304A00218E
:10FF2000D15429E00C23FB181B781B2B06D12A4B3C
:10FF300001221A70294B00221A7021E71723FB189F
:10FF40001B78312B0ED81723FB181B780C22BA18FC
:10FF50001178234AD1541723FB181A781723FB185A
:10FF600001321A700C23FB1800225A700C23FB1864
:10FF70001800114B984703E7C04601E760420300B1
:10FF80002D470100904203007042030080420300AD
:10FF9000A0420300B0420300C0420300D04203006D
:10FFA000E0420300F042030000430300104303005B
:10FFB00020430300CC3C030091A60100F96C010032
:10FFC00020430020803F030061A70100E58A010073
:10FFD00015000100A03F030044030020450300205A
:10FFE0007C03002048030020D72C0300B00300202E
:10FFF0009D470100A728030014040020A43F03002C
:020000021000EC
:10000000A92B0300A83F0300652B03005F2C03000E
:10001000B03F030080B584B000AF7860134B1A681E
:1000200001235B4219001000114B98470300012B7C
:1000300014D10F23FB1800221A700F23FB1818008D
:100040000C4B9847031E05D10F23FB181A787B68C9
:100050001A7006E07B6800221A7002E07B680022BA
:100060001A70C046BD4604B080BDC046983C002012
:10007000B17C010025A7010090B587B000AFF86002
:10008000B9607A601723FB181B221A701723FB181C
:100090001B78084A08480F21084CA047064AB9684F
:1000A000FB681800054B984700231800BD4607B0B1
:1000B00090BDC046B43F030034030020012B030071
:1000C00090B587B000AFF860B9607A601723FC186C
:1000D000144B1800144B9847030023701723FB1888
:1000E0001B78002B08D01723FB181B78042B03D098
:1000F0000E4B18000E4B98470E4B18000C4B9847B0
:1001000002200D4B98470D4AB968FB6818000C4B4C
:1001100098470320084B984700231800BD4607B0B6
:1001200090BDC046BC3F0300A9B40200D03F03000D
:1001300091A6010008400300593601003840030031
:10014000012B0300B0B5DAB000AFF860B9607A6097
:100150006823FF33FC185C49A0235B00FB180122D5
:1001600018005A4B9847030023706823FF33FB188D
:100170001B78002B07D0564AB968FB681800554B0E
:10018000984700239BE06823FF33FC18524B18006C
:10019000524B9847030023706823FF33FB181B78EA
:1001A000002B09D06823FF33FB181B78042B03D0E6
:1001B0004B4B18004B4B98476823FF33FC184649BC
:1001C0008E235B00FB180A221800404B984703005F
:1001D00023706823FF33FB181B78002B0DD0A0235E
:1001E0005B00FB181800404B9847404AB968FB6811
:1001F0001800384B9847002361E06823FF33FC1850
:100200008C235B00FD1880235A001423F918A023C7
:100210005B00F8182B00364DA847030023706823B5
:10022000FF33FB181B78002B29D18C235B00FB18B4
:100230001B68002B23D08C235B00FB181A686823F3
:10024000FF33FC188A235B00FB18142179188E20D9
:1002500040003818274DA847030023706823FF3358
:10026000FB181B78002B0AD18A235B00FB181A6845
:100270008C235B00FB181B689A4200D3BDE7A023C8
:100280005B00FB181800184B98478E235B00FB1887
:100290001800154B98476823FF33FB181B78002B79
:1002A00006D1154AB968FB6818000A4B984705E063
:1002B000124AB968FB681800064B984700231800DB
:1002C000BD465AB0B0BDC046BC3F0300D1A7020036
:1002D00078400300012B0300A0400300A9B40200F2
:1002E000B840030091A601006DB40200F040030085
:1002F00001AD02009DAF02001C4103004841030014
:1003000080B584B000AFF860B9607A60044B98475C
:10031000044B984700231800BD4604B080BDC0467A
:10032000E1360100C5FC000090B58FB000AFF86069
:10033000B9607A601823FB1800221A701823FB1882
:1003400000225A701823FB1800221A701823FB1879
:1003500000225A701C23FB1800221A701C23FB1861
:100360001422BA189A601C23FB180122DA811C237C
:10037000FB181822BA185A601C23FB1801229A8114
:100380002C4B18002C4B984700237B6346E07B6B7B
:100390002A4A2B480F212B4CA047294B1800264BEB
:1003A000984700233B632FE07B6BDAB23B6BDBB2F9
:1003B000D318DBB2DB18DAB21C23FB181A701C232B
:1003C000FB1864211800204B98470300FB62FB6A6E
:1003D000002B0CD11C23FB181B78184A18480F213E
:1003E000184CA047164B1800134B984709E0144BC4
:1003F000164A1188198092789A70114B18000E4B8A
:1004000098473B6B01333B633B6B0F2BCCDD104BB1
:100410001800094B98477B6B10337B637B6B7F2BFA
:10042000B5DD0B4B1800044B984700231800BD4660
:100430000FB090BD7041030091A60100A4410300DC
:1004400034030020012B0300D90B0100AC41030051
:10045000A03F030090B585B000AFF860B9607A6046
:10046000054B064AB968F868054CA04700231800F8
:10047000BD4605B090BDC046B0410300B841030081
:10048000012B030090B587B000AFF860B9607A60C7
:10049000074B984703007B617B69064AB968F86897
:1004A000054CA04700231800BD4607B090BDC046CC
:1004B0004D8E0100D0410300012B030090B587B0A1
:1004C00000AFF860B9607A60114B9847114B9847BC
:1004D000114B9847031C7B61104BFC2189057869FF
:1004E0009847031C1A1C1223FC180D4B101C98472C
:1004F000030023801223FB181B880A4AB968F86896
:10050000094CA04700231800BD4607B090BDC04667
:10051000051301002D130100B5140100D1010300E2
:10052000A1010300D8410300012B030090B587B05F
:1005300000AFF860B9607A600F4B9847031C7B618D
:100540000E4BFC21890578699847031C1A1C12235D
:10055000FC180B4B101C9847030023801223FB1838
:100560001B88084AB968F868074CA04700231800A0
:10057000BD4607B090BDC04655180100D10103002B
:10058000A1010300F4410300012B030080B584B0F6
:1005900000AFF860B9607A600020064B9847064AC1
:1005A000B968FB681800054B984700231800BD4642
:1005B00004B080BDDD0E010010420300012B0300DA
:1005C00080B584B000AFF860B9607A600320064B54
:1005D0009847064AB968FB681800054B98470023FE
:1005E0001800BD4604B080BDDD0E010024420300AA
:1005F000012B030080B584B000AFF860B9607A6069
:100600000120064B9847064AB968FB681800054B5D
:10061000984700231800BD4604B080BDDD0E0100E0
:1006200038420300012B030080B584B000AFF860AE
:10063000B9607A600220064B9847064AB968FB68A1
:100640001800054B984700231800BD4604B080BD34
:10065000DD0E01004C420300012B030080B582B087
:1006600000AF0200FB1D1A70064BFA1D1278110034
:100670001F220A40012191400A001A60C046BD466F
:1006800002B080BD00E100E080B584B000AF7860CA
:100690007B681B68FB60FB68DB69072213405A1EFE
:1006A0009341DBB21800BD4604B080BD80B582B076
:1006B00000AF7860C0467B681800044B9847031E63
:1006C000F9D1C046BD4602B080BDC04689060100D2
:1006D00080B582B000AF78607B6864221A607B6866
:1006E0001B4A5A607B6800229A607B6800221A735A
:1006F0007B6800221A767B68802292031A617B68ED
:1007000001225242DA827B68012252429A827B683D
:100710000022DA617B6800221A627B6824220021B1
:1007200099547B6800229A627B682C22002199549C
:100730007B682D22002199547B682E220021995438
:100740007B68D7221A86C046BD4602B080BDC0462F
:10075000480D000080B584B000AF78607B681B68EE
:10076000BB600023FB607B681800144B9847BB6894
:100770001B6802221A43BB681A607B681B6818005A
:100780000F4B9847030018000E4B98470CE0FB688E
:100790000133FB607B68DB881A00FB689A4203D850
:1007A000BB6810225A8306E0BB685B8B9BB21A00C1
:1007B00010231340EBD0BD4604B080BDAD06010050
:1007C000CD3F02005D06010080B582B000AF7860C9
:1007D0000A00FB1C1A707B685B7EDBB25AB2FB1C02
:1007E0001B78012199400B005BB213435BB2DAB274
:1007F0007B685A76C046BD4602B080BD90B591B0C8
:1008000000AF0023FB633A23FB1800221A703B1D44
:100810001800214B98473B1D204ADA613B1D204AB6
:100820001A623B1DFA229200DA823B23FB18032254
:100830001A701EE03A23FC183A1D1A491A4B180088
:100840001A4B9847030023703A23FB181B78002BA0
:1008500004D13A23FB181B78FB630FE0124B1800FE
:10086000134B98473B23FB181A783B23FB18013A9C
:100870001A703B23FB181B78002BDBD1FB6B002B82
:1008800004D1094B18000B4B984700E0C046FB6BA6
:100890001800BD4611B090BDD1060100020008004D
:1008A000020009000008004228430020213F010007
:1008B000554001005507010080B584B000AF786055
:1008C0000E4B00221A700D4B01229A600023FB6030
:1008D0000B4B1B680C22BA1811001800094B9847E3
:1008E000094B00221A70FB68002B03D0074B8022B3
:1008F00052051A60C046BD4604B080BD1C040020ED
:1009000050430020297601001804002004ED00E087
:1009100080B584B000AF78600E4B00221A700D4B8A
:1009200001229A600023FB600B4B1B680C22BA1853
:1009300011001800094B9847094B00221A70FB68F8
:10094000002B03D0074B802252051A60C046BD46DB
:1009500004B080BD1C040020504300202976010013
:100960001804002004ED00E080B584B000AF78608A
:100970000E4B00221A700D4B01225A600023FB60BF
:100980000B4B1B680C22BA1811001800094B984732
:10099000094B01221A70FB68002B03D0074B802201
:1009A00052051A60C046BD4604B080BD1C0400203C
:1009B00050430020297601001804002004ED00E0D7
:1009C00080B500AF1149124B00221800114B984717
:1009D0000F4B00211800104B984710490C4B012277
:1009E00018000C4B98470A4B012118000A4B9847F6
:1009F0000B49074B02221800064B9847044B022173
:100A00001800054B9847C046BD4680BDB908010097
:100A10002843002009F90000C9070100110901005D
:100A20006909010080B582B000AF00237B60144BE0
:100A3000984703007B607B68002B1AD1114B9847C5
:100A40000120114B98470200104B1A60032200212D
:100A500001200F4B984702000E4B1A600B4B1B688E
:100A6000002B03D00B4B1B68002B03D106237B60AC
:100A700000E0C0467B681800BD4602B080BDC0469D
:100A8000FD070100C1090100616F0100244300203E
:100A9000F96C01005043002090B585B000AF78603C
:100AA0000023FB607B68002B03D07B685B68002B16
:100AB00003D108235B42FB601FE07B681B789AB27E
:100AC000104B1A807B685A680E4B5A607B68DA8933
:100AD0000C4B5A800B23FC180A4A0B4B11001800D0
:100AE0000A4B9847030023700B23FB181B78002B3D
:100AF00003D006235B42FB60C046FB681800BD467E
:100B000005B090BD5443002028430020F5F90000B3
:100B100090B583B000AF00237B60094B18680023B9
:100B200000220021074CA0470300012B02D0142310
:100B30005B427B607B681800BD4603B090BDC04639
:100B400024430020A16F010080B584B000AF78601D
:100B50000023FB60084B1B687A6811001800074BE4
:100B600098470300012B02D01D235B42FB60FB680A
:100B70001800BD4604B080BD24430020B17C0100B4
:100B800080B584B000AF78600023FB60044B1A6826
:100B90007B681A60FB681800BD4604B080BDC04683
:100BA0005043002080B500AF024B1B781800BD46B3
:100BB00080BDC0461804002080B582B000AF02009E
:100BC000FB1D1A70034BFA1D12781A70C046BD4601
:100BD00002B080BD1804002080B584B000AF7860FA
:100BE00039600023FB600023BB6096235B00180084
:100BF000284B98470300FB60FB68002B38D1082383
:100C0000FB181800244B98470300FB60FB68002B7F
:100C100030D17B681800214B98470300FB60FB68CC
:100C2000002B2AD1BB683A68110018001C4B98476A
:100C30000300012B11D11B4B9847031E11D000203C
:100C4000194B9847FB68002B03D021235B42FB60C4
:100C500014E003235B42FB6010E003235B42FB6074
:100C60000CE0124B98470200FB681343FB6002E064
:100C7000C04600E0C046FB6807E0C0460B4B984703
:100C80000200FB681343FB60FB681800BD4604B01C
:100C900080BDC046490B0100810B0100990A01008B
:100CA000B17C0100A50B0100B90B0100110B010083
:100CB00090B58DB000AFB96011007B600F23FB18B9
:100CC000021C1A700C23FB180A1C1A800023FB62FA
:100CD00096235B001800394B98470300FB62FB6AC0
:100CE000002B01D0FB6A64E00F23FB181B789AB23B
:100CF0001C23FB181A801C23FB18BA685A601C239B
:100D0000FB180C22BA1812885A801C23FB180022E8
:100D10001A721C23FB1800225A721C23FB18002293
:100D20009A722B23FC181C23FA18254B110018006B
:100D3000244B9847030023702B23FB181B78002BB0
:100D400003D006235B42FB6230E00F23FB181B78C5
:100D50009AB21023FB181A801023FB187A685A6085
:100D60001023FB184022BA1812885A801023FB184F
:100D700000221A721023FB1800225A721023FB184B
:100D800000229A722B23FC181023FA180C4B110026
:100D900018000D4B9847030023702B23FB181B787A
:100DA000002B03D006235B42FB62C046074B9847EB
:100DB000FB6A1800BD460DB090BDC046490B01004E
:100DC00028430020F945010041440100110B0100B6
:100DD00080B584B000AFB9607A603B600F23FB1828
:100DE000021C1A700F23FB181B78062B4AD89A0096
:100DF0002B4BD3181B689F46BB6800221A707B6878
:100E000000221A703B6800221A7045E0BB68FF227E
:100E10001A707B6800221A703B6800221A703BE04F
:100E2000BB6800221A707B68FF221A703B680022A0
:100E30001A7031E0BB6800221A707B6800221A70B9
:100E40003B68FF221A7027E0BB68FF221A707B689C
:100E5000FF221A703B6800221A701DE0BB68002256
:100E60001A707B68FF221A703B68FF221A7013E029
:100E7000BB68FF221A707B6800221A703B68FF2251
:100E80001A7009E0BB6800221A707B6800221A7091
:100E90003B6800221A70C046C046BD4604B080BD03
:100EA0003043030080B582B000AF0200FB1D1A7012
:100EB000074BFA1D12781A70064B00221A70064B67
:100EC00000221A7000231800BD4602B080BDC04643
:100ED00014000020300400203104002080B582B0CE
:100EE00000AF0200FB1D1A70034BFA1D12781A7036
:100EF000C046BD4602B080BD3004002090B589B028
:100F000000AF7860344B1B781800344B9847324B55
:100F10001A780C23FB181A700C23FB18304A5A60FD
:100F20000C23FB180422DA810C23FB1800229A60A0
:100F30000C23FB1800229A811F23FB18294A1278E0
:100F40001A70294B1B781F22BA1812789A423ED089
:100F5000254B1F22BA1812781A700923FC180A238D
:100F6000FA180B23F9181F23FB18187823001F4CBD
:100F7000A0471B4B01221A700B23FB181A78184B41
:100F80005A700A23FB181A78154B9A700923FB181C
:100F90001A78134BDA703220154B9847031E12D182
:100FA0000C23FB181800134B9847031E04D1124B57
:100FB0001800124B984703E0114B18000F4B98474D
:100FC000104B984703E0104B18000C4B9847C82073
:100FD0000E4B9847B0E7C04614000020A50E010054
:100FE000340400203004002031040020D10D010021
:100FF000490B0100990A01004C43030091A601002E
:1010000074430300110B010098430300058A01009B
:1010100080B584B000AF0200FB1D1A700F23FB18CF
:10102000FA1D1278D2091A700E23FB18FA1D1278D5
:1010300052091A700D4BBB600F23FB181B78002B55
:101040000FD10F23FB181B789B0010229446BC4441
:101050006344083B1A680E23FB181B78DB01D31886
:1010600000E000231800BD4604B080BD00440041EC
:1010700080B582B000AF0200FB1D1A70064BFA1D4E
:10108000127811001F220A40012191400A001A60C3
:10109000C046BD4602B080BD00E100E080B582B030
:1010A00000AF0200FB1D1A70074AFB1D1B781900D8
:1010B0001F230B40012199400B0019008023D150C0
:1010C000C046BD4602B080BD00E100E080B582B000
:1010D00000AF0200FB1D1A70FB1D1B781800034BAC
:1010E000984703001800BD4602B080BD11100100F2
:1010F00080B582B000AF78607B6800221A707B6890
:1011000001225A707B6800229A70C046BD4602B028
:1011100080BD000080B584B000AF0200FB1D1A70D6
:10112000BB1D0A1C1A70FB1D1B7818000D4B98473D
:101130000300FB60FB1D1B781F22134001229A4015
:101140001300BB60BB1D1B78002B03D0FB68BA6883
:101150009A6102E0FB68BA685A61C046BD4604B0B5
:1011600080BDC046CD10010080B584B000AF78606E
:101170007B681B68FB60FB68DB695A1E9341DBB22E
:101180001800BD4604B080BD80B582B000AF786065
:101190007B6801221A707B6800225A607B680022FB
:1011A0009A607B68C0229203DA607B6800221A741E
:1011B0007B6800225A747B6801229A747B68012242
:1011C000DA747B6800221A757B6824220021995406
:1011D0007B6818330C22002118000A4B98477B6863
:1011E000094A9A617B6800229A627B680022DA626F
:1011F0007B6800221A637B6800225A63C046BD46A2
:1012000002B080BDA7280300A086010080B584B08D
:1012100000AF78607B681B68FB607B681B68180008
:101220000B4B9847030018000A4B9847C0467B6851
:101230001800094B9847031EF9D1FB681B6802226E
:101240001A43FB681A60C046BD4604B080BDC04664
:10125000CD3F0200711001006911010080B584B01A
:1012600000AF78607B681B68FB607B681B681800B8
:101270000E4B9847030018000D4B9847C0467B68FB
:1012800018000C4B9847031EF9D1FB688F221A7582
:10129000FB688F221A76FB681B68022293431A00B0
:1012A000FB681A60C046BD4604B080BDCD3F020059
:1012B0009D1001006911010080B582B000AF642368
:1012C0007B60064B1B687A6811001800044B984736
:1012D00003001800BD4602B080BDC0467404002063
:1012E000B17C0100B0B500AF044B186800230022A8
:1012F0000021034CA047C046BD46B0BD7404002089
:10130000A16F010080B500AF054B1800054B984751
:10131000034B1800044B9847C046BD4680BDC046ED
:10132000380400205D120100A544020080B58EB093
:1013300000AF3B001800184B98473B0001221A7081
:101340003B0000225A603B0000229A603B00C02212
:101350009203DA603B00012252429A623B000F4A3C
:10136000DA623B00012252421A633B000C4A5A6384
:101370003B0001225A743B000A4A9A613A000A492A
:101380000A4B18000A4B9847084B1800094B98471E
:10139000C046BD460EB080BD89110100030011009A
:1013A0000300150080841E00001400423804002051
:1013B000BD4702000D12010080B590B000AF0823B8
:1013C000FB1818002C4B98470823FB1801221A70B1
:1013D0000823FB1800225A600823FB1800229A6099
:1013E0000823FB18C0229203DA600823FB180122AD
:1013F00052429A620823FB18204ADA620823FB183B
:10140000012252421A630823FB181D4A5A6308231B
:10141000FB1801225A740823FB181A4A9A61082300
:10142000FA181949194B1800194B9847174B18000F
:10143000184B98473B1D1800174B98473B1D01223E
:101440001A703B1D19001420144B984701211420D9
:10145000134B98470120134B98470200124B1A6018
:10146000114B1B68002B03D1104B1800104B9847F1
:10147000C046BD4610B080BD8911010003001100B7
:101480000300150080841E00001400423804002070
:10149000BD4702000D120100F1100100FD320200F3
:1014A00015110100616F010074040020C0430300A6
:1014B00091A60100B0B586B000AF354B7B61354BCE
:1014C00098470300012B59D10823FB1800221A600A
:1014D0003B1D314A12681A60002114202F4B984797
:1014E0001123FC180823FA18391D2D4804232D4D0B
:1014F000A8470300237001211420284B984711238B
:10150000FB181B78002B36D10823FB181B781A0612
:101510000823FB185B781B041A430823FB189B78ED
:101520001B0213430822BA18D2781343FB60FB68EE
:101530009A0C1223FB181A801223FB181B881A001E
:1015400080239B01134007D01223FB181222BA18E4
:10155000128815490A431A801223FB1800229A5E4A
:10156000124B10009847021C114BFA218905101CE0
:101570009847031C7B610F4B984703E00E4B180004
:101580000E4B98477B69181CBD4606B0B0BDC046DF
:1015900000007AC4B91201002444030015110100AF
:1015A00038040020BD4C020000C0FFFF8D0E030078
:1015B000D5080300E5120100F043030091A60100E5
:1015C00080B58AB000AF7860274B98470823FB1896
:1015D0001800264B98470823FB1801221A7008238D
:1015E000FB1819002320224B984700212320214B70
:1015F0009847214B7B62214B1B78DBB2002B24D018
:101600001F4B9847031C3B623B6A181C1D4B9847B5
:101610001D4B396A786A9847031CFB611B4BFC2100
:101620008905F8699847031E04D001212320114B36
:1016300098470EE0164B1749F8699847031E08D0E3
:10164000002123200B4B984703E000212320094B66
:101650009847114B9847FA239B0018000F4B984767
:101660000F4B9847C7E7C046B9130100F1100100BE
:10167000FD3202001511010000002042300B002055
:10168000B51401008D360100150B03002501030080
:10169000FD000300000080BE05130100058A010063
:1016A0002D13010080B588B000AF0200BB1D1A8069
:1016B0001C23FB1800221A70BB1D1B88DAB21C23E6
:1016C000FB185A70BB1D1B881B0A9BB2DAB21C2385
:1016D000FB189A700C23FB1810221A700C23FB18AD
:1016E0001C22BA185A600C23FB180322DA810C233F
:1016F000FB1800229A600C23FB1800229A81962383
:101700005A000C23FB1811001800064B9847031EC3
:1017100002D001235B4200E000231800BD4608B060
:1017200080BDC046D90B010080B588B000AF020073
:10173000FB1D1A70BB1D0A1C1A701E23FB18002209
:101740001A80FB1D1B78DB021AB2C0235B01134019
:101750001AB21E23FB1800215B5E13431AB21E232C
:10176000FB181A80BB1D1B789B011AB2F0239B004B
:1017700013401AB21E23FB1800215B5E13431AB2FA
:101780001E23FB181A801E23FB181E22BA1812886B
:101790001A801E23FB181E22BA1812881A801E23D4
:1017A000FB181E22BA1812881A80254B1E22BA185E
:1017B00012881A80FB1D1B7803221340DAB2214BDA
:1017C0001A70BB1D1B780F221340DAB21E4B1A7021
:1017D0001B4B1B8818001D4B9847031E02D001238A
:1017E0005B4229E01823FB1803221A701823FB1808
:1017F00000225A701823FB1800229A700823FB1845
:1018000010221A700823FB181822BA185A600823ED
:10181000FB180322DA810823FB1800229A600823B0
:10182000FB1800229A8196235A000823FB18110006
:101830001800074B984700231800BD4608B080BD2C
:10184000780400207A0400207B040020A516010003
:10185000D90B010090B58BB002AFFB1D04221A70AA
:101860003B1D00221A803A1DF91D0223009313002C
:10187000012210203B4CA04703007B617B69002BB9
:1018800001D0394B6AE03B1D1B781AB23B1D5B78D7
:101890001B021BB213431AB21223FB181A80334BDC
:1018A0001B780C2B16D89A00314BD3181B689F4617
:1018B000304BFB6111E0304BFB610EE02F4BFB61C5
:1018C0000BE02F4BFB6108E02E4BFB6105E02E4B3C
:1018D000FB6102E0294BFB61C0462C4B1B78012BBE
:1018E0000CD002DC002B05D014E0022B0ED0032B11
:1018F00008D00FE0FE239B05BB610FE08023DB05D2
:10190000BB610BE0FA239B05BB6107E0F8239B0555
:10191000BB6103E0FE239B05BB61C0461C4BF9691C
:1019200016489847031C1A1C1A4B1B49101C984751
:10193000031C1A1C164BB969101C9847031CFB604A
:101940001223FB181A88154B10009847021C114BE4
:10195000F968101C9847031CBB60BB68181CBD4687
:1019600009B090BDB10C0100000080BF7B040020D5
:10197000284403000000C841000048420000C8425B
:10198000000048430000C843000048447A04002097
:10199000F5040300D5080300FAED6B3D8D0E03003E
:1019A00090B585B000AF7860002100201E4B9847AD
:1019B000031E02D000201D4B98471D4B1B78DBB245
:1019C000002B2CD003201B4B9847FA239B001800B8
:1019D000194B9847194B9847031CFB60184B002183
:1019E000F8689847031E14D0164BFC218905F86847
:1019F0009847031C1A1C0A23FC18134B101C984709
:101A0000030023800A23FB1800229B5E18000F4B63
:101A100098470020074B9847054B00221A70322048
:101A2000054B9847C9E7C04629170100E58A010020
:101A3000310B0020DD0E0100058A01005518010060
:101A400039010300D1010300A1010300B5360100F3
:101A500080B500AFBFF34F8F024B034ADA60BFF38C
:101A60004F8FFEE700ED00E00400FA0580B584B07A
:101A700000AF0200FB1D1A700F23FB18FA1D12782D
:101A8000D2091A700E23FB18FA1D127852091A7027
:101A90000D4BBB600F23FB181B78002B0FD10F23BE
:101AA000FB181B789B0010229446BC446344083BFF
:101AB0001A680E23FB181B78DB01D31800E0002303
:101AC0001800BD4604B080BD0044004180B500AFA1
:101AD000024B9847C046BD4680BDC046511A010022
:101AE00080B582B000AF0200FB1D1A70FB1D1B7891
:101AF0001800034B984703001800BD4602B080BD94
:101B00006D1A010080B584B000AF0200FB1D1A7091
:101B1000FB1D1B7818000B4B98470300FB60FB1D57
:101B20001B781F22134001229A401300BB60FB6800
:101B30001B6ABA6813405A1E9341DBB21800BD46B7
:101B400004B080BDE11A010080B584B000AF02008E
:101B5000FB1D1A70BB1D0A1C1A70FB1D1B78180098
:101B60000D4B98470300FB60FB1D1B781F221340A1
:101B700001229A401300BB60BB1D1B78002B03D0D1
:101B8000FB68BA689A6102E0FB68BA685A61C046AD
:101B9000BD4604B080BDC046E11A010080B500AF6B
:101BA000024B00221A70C046BD4680BD9904002039
:101BB00080B582B000AF0200FB1D1A70FB1D1B78C0
:101BC0005BB2DB435BB2064A127852B213405BB29F
:101BD000DAB2034B1A70C046BD4602B080BDC046A3
:101BE0009904002080B582B000AF0200FB1D1A707E
:101BF000054B1A78FB1D1B781343DAB2024B1A709F
:101C0000C046BD4602B080BD9904002080B582B0B8
:101C100000AF0200FB1D1A70064B1B78FA1D1278EC
:101C20001340DBB25A1E9341DBB21800BD4602B02E
:101C300080BDC0469904002090B585B000AF7860A3
:101C400039607B68002B02D03B68002B01D1002358
:101C500013E00F23FC1839680A4B002218000A4BC6
:101C6000984703002370074B1800084B98470F2331
:101C7000FB181B785A425341DBB21800BD4605B031
:101C800090BDC046CC060020D1A702006DB4020072
:101C900080B59EB000AFF860B960FB1D1A70762366
:101CA000FB1801221A807423FB1800221A806E236D
:101CB000FB1800221A807223FB1800221A802423AA
:101CC000FB18180041231A000021924B9847182353
:101CD000FB18180009231A0000218E4B9847142383
:101CE000FB1800221A600023BB667123FB18002238
:101CF0001A70BB68002B01D1002306E1BA68FB68AB
:101D000011001800844B984703001A000123534028
:101D1000DBB2002B01D00123F7E0BB6818007F4B3A
:101D200098470300402B01D90023EEE0BB682E2129
:101D300018007B4B98470300BB66BB6E002B52D04C
:101D4000BB6E1800754B984702006E23FB181A8073
:101D50006E23FB181B88072B37D87123FB18012231
:101D60001A70BA6E1823FB18110018006D4B9847B3
:101D7000BB681800694B984702006E23FB181B884C
:101D8000D31A3C2B11D97423FB186E22BA1812886F
:101D90003C218A1A1A807423FB181A88B9682423F4
:101DA000FB181800604B98472AE0BA6EBB68D21A3D
:101DB0007423FB181A807423FB181A88B96824232B
:101DC000FB181800584B98471AE07423FB183C2264
:101DD0001A807423FB181A88B9682423FB1818008A
:101DE000514B98470CE07423FB183C221A80742353
:101DF000FB181A88B9682423FB1818004A4B984727
:101E00007423FB181B887422BA18591C11801A00FD
:101E10002423FB182D2199547623FB1800221A80C5
:101E20007223FB1801221A8010E07223FA18722321
:101E3000FB181B88191C8900CB18DB18138076232C
:101E4000FB181A887623FB1801321A807623FB18B8
:101E50001B88022BE9D97623FB1801221A804BE05C
:101E60007623FB181A8831491423FB181800304BCD
:101E700098477423FB181B882422BA18D3181422FD
:101E8000B91803221800284B98477123FB181B78B8
:101E9000002B0CD07423FB181B8803332422BA18A0
:101EA000D3181822BA18110018001E4B9847242383
:101EB000FA18FB6811001800174B984703001A0026
:101EC00001235340DBB2002B0FD0FB1D1A78BB68F7
:101ED000002118000F4B98472423FA18BB68110003
:101EE0001800104B984701230FE07623FB181A883F
:101EF0007623FB1801321A807623FA187223FB1816
:101F000012881B889A42ABD300231800BD461EB02E
:101F100080BDC046A7280300391C01005F2C0300C8
:101F2000012D0300132C0300D72C03006C44030085
:101F3000652B030090B585B002AF0120234B984775
:101F400003001A0001235340DBB2002B05D0204BC5
:101F5000190001201F4B984734E002201B4B984783
:101F600003001A0001235340DBB2002B05D01A4BAB
:101F700019000120174B984724E00420134B984781
:101F8000031E05D0154B19000120124B984719E08C
:101F900008200E4B9847031E05D0114B1900012055
:101FA0000C4B98470EE00F4B19000120094B984746
:101FB0000D490E4800230093002301220C4CA0473A
:101FC00003007B60BD4603B090BDC0460D1C010000
:101FD0007444030061A70100A0440300CC44030043
:101FE000F84403002445030050450300B843002093
:101FF00029E30200B0B586B000AF786039607B6835
:10200000002B02D03B68002B05D1584B1900012052
:10201000574B9847A6E00820564B984703001A00F4
:1020200001235340DBB2002B55D000237B61524B80
:1020300030221A70504B3A225A70504B7B6102E0AA
:102040007B69013B7B617B691B782F2BF8D17B6916
:1020500018004B4B98470300012B24D97B690133AF
:102060007B617A69474B11001800474B98474249FA
:10207000464B40221800464B98473F4A454B1900B3
:1020800001203B4B98471323FC183B493F4B0A2246
:102090001800414B9847030023701323FB181B784B
:1020A000002B12D008E03D4B19000120304B98471F
:1020B00020203B4B984755E01323FB181A78394BE7
:1020C000190001202A4B98474CE0374B00221A6038
:1020D0000820334B98477B68002B43D00023FB60DC
:1020E0001323FC180C23FB183A68796827482F4DF6
:1020F000A847030023701323FB181B78002B0CD078
:10210000224B18002A4B98472020254B9847294BF3
:1021100019000120164B984724E0234B1A68FB68EE
:10212000D218214B1A60204B1A68234B1B68234995
:1021300001200F4CA0471C4B1A681F4B1B689A428A
:1021400010D3124B18001A4B98471D4B1900012051
:10215000074B9847002117201A4B98471020104B27
:102160009847C046BD4606B0B0BDC046784503009E
:1021700061A701000D1C01005800002074450300F8
:102180005F2C03005A000020132C0300CC06002013
:10219000911C0100DC450300D1A702009C4503000F
:1021A000E51B010004460300F40600209DAF020079
:1021B0006DB4020038460300F006002074460300A8
:1021C000A8460300491B010090B585B000AFF86038
:1021D000B9607A60BB68042B00D977E0BB689A00CD
:1021E0003C4BD3181B689F463B4B190001203B4BCF
:1021F00098476BE03A4B19000120384B9847042070
:10220000384B984762E07B681B881A007B685B68E4
:1022100035490120314CA0477B681B88C82B0DD164
:102220007B685A68314B1A60314B00221A607B6818
:102230005A6880239B009A4243D803E02020294B10
:10224000984743E07B689A687B685B6819001000D8
:10225000284B98471020234B984732E07B685A68F8
:102260007B681B6819001000224B98477B681B7A1B
:10227000002B28D010201B4B984724E07B681A685D
:102280001D4B19000120154B98477B681B680B33C9
:102290001BD10820194B9847031E06D0184B180075
:1022A000184B98470820184B98470420134B984721
:1022B000031E02D00420144B9847144B9847C04685
:1022C00003E0C04602E0C04600E0C046BD4605B09F
:1022D00090BDC04648500300DC46030061A70100E2
:1022E00014470300E51B010040470300F0060020EF
:1022F000F4060020F51F01007C4703000D1C0100BF
:10230000CC0600206DB40200B11B0100351F010096
:1023100080B582B000AF3A60FB1D021C1A70BB1D75
:102320000A1C1A703A68BB1D1978FB1D1B785BB23A
:102330001800034B9847C046BD4602B080BDC0465A
:1023400039E00200B0B586B004AF786039603B6810
:10235000FF2213401C003B681B0A1A00FF23134096
:102360003A68120C1100FF220A403968090E0D006C
:102370007868094902950192009323000200012028
:10238000064CA0473A687B6811001800044B984738
:10239000C046BD4602B0B0BDAC47030061A7010016
:1023A0009DE1020090B587B002AF02003960FB1DCD
:1023B0001A70FB1D1B782C2B02D0322B3DD06FE006
:1023C0003B68FB60FB681B78012B07D1364B19007B
:1023D0000120364B9847364B98475EE0FB681B78E8
:1023E000002B5AD1334B19000120304B9847022063
:1023F000314B98470820314B9847031E06D0304B8D
:102400001800304B984708202B4B984704202B4B43
:102410009847031E02D00420274B98472A4B0121DE
:1024200018002A4B98472A4A2A48FF230093130092
:1024300002220B21284CA0472FE03B68BB60BB6801
:102440001B781800BB6801331B781C00BB68023383
:102450001B781A00BB6803331B7820490193009254
:10246000230002000120114CA04702201C4B98477A
:102470001C4B1B78012B02D11B4B98470FE01B4ACA
:10248000114B110018001A4B9847031E07D0194B27
:1024900019000120054B984701E0C04600E0C04606
:1024A000C046BD4605B090BDDC47030061A70100F2
:1024B00085ED0100FC470300B11B01000D1C01006C
:1024C000CC0600206DB40200F8060020E5CC020026
:1024D000204803002C480300B1E8010038480300FD
:1024E000E51B010098040020351F01005C44030037
:1024F000B1CB02006048030090B583B000AF294B18
:102500009847294B19000120284B9847FC1D0020B3
:10251000274B984703002370FB1D1B78012B10D11C
:10252000244B19000120214B9847234B190001200F
:102530001E4B9847C0460020204B98470300022BB3
:10254000F9D1FB1D1B78002BE0D11D4B1900012098
:10255000164B98478C239A001A4B002118001A4BEF
:102560009847BC1D174B19000020184B98470300D3
:102570002370BB1D1B780B2B07D1BB1D1A78144B86
:1025800019000120094B984708E0124B190001205F
:10259000064B98470120104B9847C046BD4603B0F4
:1025A00090BDC046BDB501008448030061A701008D
:1025B00099BA0100BC480300E44803000DB60100CD
:1025C000184903009C040020A728030079A70200F3
:1025D0003C4903006C490300E51B010080B582B053
:1025E00000AF3B1D1800084B98473A1D074B1100E0
:1025F0001800074B9847054B1800064B9847C046F4
:10260000BD4602B080BDC046CDF702006043002049
:10261000F1F70200DDF8020080B588B000AF3B00A2
:102620001800154B98473B00802292001A613B002E
:10263000124A5A603B0050221A803B0000229A70D6
:102640003A000F4B110018000E4B98470300FB6136
:10265000FB69002B06DAFA690B4B190001200B4BC2
:102660009847FEE70A4A064B11001800094B9847A5
:10267000C046BD4608B080BD61DE02006043002058
:10268000B8430020ADDE02009049030061A70100BD
:10269000C921010099DF020080B582B000AF3A6025
:1026A000FB1D021C1A70BB1D0A1C1A703A68BB1D68
:1026B0001978FB1D1B785BB21800034B9847C04686
:1026C000BD4602B080BDC04659CB020080B582B085
:1026D00000AF786039603A687B6811001800034BDE
:1026E0009847C046BD4602B080BDC0468DCB0200B3
:1026F00080B582B000AF78607B681B68DB68042B14
:1027000012D17B681B689B68174904221800174B7D
:102710009847031E08D100211720154B9847154BE9
:102720001800154B98471BE07B681B68DB68052B7E
:1027300012D17B681B689B681049052218000B4B5F
:102740009847031E08D101211720094B98470C4BCD
:102750001800094B984703E00A4B1800064B9847AE
:10276000C046BD4602B080BDD8490300B52C030069
:10277000491B0100E049030091A60100F84903004C
:10278000004A0300184A030090B589B002AF786090
:102790001023FB1800221A701023FB1800225A7015
:1027A0001023FB1800229A707B685B685A687B686C
:1027B0005B689B6824490120244CA0477B681B6808
:1027C0009B68234904221800224B9847031E37D1E7
:1027D0007B681B689B680433FB6000237B6115E00A
:1027E0007C69631C7B61FB680C22B9180A22180003
:1027F000194B98470300DAB21023FB181A55FB68EF
:102800001B782C2B0AD1FB680133FB607B69022B00
:1028100005DCFB681B78002BE2D100E0C0461023EA
:10282000FB181B781A001023FB185B781800102384
:10283000FB189B780949009303000120034CA04733
:10284000C046BD4607B090BD3C4A030061A70100E9
:10285000444A0300B52C0300612E03004C4A0300D8
:1028600090B58BB000AF78600C23FB181422FF21C9
:102870001800414B98477B681B689B683F490922B9
:1028800018003F4B9847031E59D13E4B19000120B9
:102890003D4B98477B685B685A687B685B689B68C0
:1028A0003A490120384CA0477B681B68DA687B688E
:1028B0001B689B6836490120334CA04700237B628C
:1028C0007B681B689B680933BB6015E07C6A631CEE
:1028D0007B62BB680822B9180A2218002D4B984762
:1028E0000300DAB20C23FB181A55BB681B782C2B9B
:1028F0000AD1BB680133BB607B6A132B05DCBB6864
:102900001B78002BE2D100E0C046234B19000120C8
:102910001D4B984700233B620DE00C23FA183B6ADD
:10292000D3181B781A001D4B19000120164B98472D
:102930003B6A01333B623B6A132BEEDD18E0184B18
:1029400019000120104B98477B685B685A687B68C8
:102950005B689B680D4901200B4CA0477B681B6896
:10296000DA687B681B689B6809490120064CA04710
:10297000C046BD460BB090BDA7280300604A0300C7
:10298000B52C03006C4A030061A701003C4A030018
:10299000884A0300612E0300904A0300A44A030002
:1029A000A84A030090B583B000AF7860094B1900C6
:1029B0000120094B98477B685B685A687B685B68B5
:1029C0009B6806490120044CA047C046BD4603B0A1
:1029D00090BDC046D84A030061A701003C4A0300ED
:1029E00080B584B000AF78607B681B689B68FB6033
:1029F0007B681B68DB68BB60BB68052B0BD10F498C
:102A0000FB68052218000E4B9847031E03D10D4B9F
:102A100001221A700DE0BB68042B0AD10A49FB6839
:102A200004221800064B9847031E02D1054B0022D2
:102A30001A70C046BD4604B080BDC0462C4B030092
:102A4000B52C0300300B0020344B030080B582B05E
:102A500000AF78607B681B68DB68002B0CD07B685C
:102A60001B689B68064905221800064B9847031E01
:102A700002D0054B01221A70C046BD4602B080BD8F
:102A8000F84903006D2C0300310B002080B582B0A3
:102A900000AF7860024B9847C046BD4602B080BD8B
:102AA000CD1A010080B582B000AF7860024B984724
:102AB000C046BD4602B080BD5D37010080B582B022
:102AC00000AF7860024B9847C046BD4602B080BD5B
:102AD000C937010090B58BB006AFF860B9607A6075
:102AE000BB68012B3CD0052B00D184E0002B00D02B
:102AF00087E07B681B68002B25DB444B1900012015
:102B0000434B98474349444AF86800230593002300
:102B100004930023039300230293002301933E4B6D
:102B200000930B0001213D4CA047031E05D03C4BF8
:102B300019000120364B984763E03A4B19000120F9
:102B4000334B98475DE0384A384B19000120304B31
:102B50009847354AFB6811001800354B984750E0FC
:102B60007B681B78002B3DD1324B3349F868022239
:102B7000324CA047324B3349F86802222F4CA04711
:102B8000314B3249F86802222C4CA047304B314976
:102B9000F8680222294CA0472F4B3049F8680222DE
:102BA000264CA0472E4B2F49F8680222234CA04701
:102BB0002D4B2E49F8680222204CA0472C4B2D4962
:102BC000F86802221D4CA0472B4B2C49F8680222C2
:102BD0001A4CA0472A4B98472A4B190001200C4B4E
:102BE00098470EE07B681B781A00274B19000120DC
:102BF000074B984705E0254B19000120044B9847E7
:102C0000C046C046BD4605B090BDC0463C4B030023
:102C100061A70100584B0300684B0300F9CB020089
:102C2000704B0300984B03005C440300B44B03005B
:102C3000B1CB020061280100EC4B030099CD0200EA
:102C400089270100184B0300A5290100004C03004F
:102C5000F1260100144C0300E1290100244C03007B
:102C60004D2A01002C4C03008D2A0100344C030036
:102C7000A52A01003C4C0300BD2A0100444C03007E
:102C8000293701004C4C0300604C0300944C0300B6
:102C900080B588B000AF3B1D18001F4B98473B1D07
:102CA0001E4A9A603B1D80229200DA603B1D1C4A3E
:102CB0001A613B1D802292005A613B1D194A1A80FD
:102CC0003B1D194A9A803A1D184B11001800184BE9
:102CD00098470300FB61FB69002B06DAFA69154B84
:102CE00019000120144B9847FEE7144A0F4B1100BE
:102CF0001800134B98470300FB61FB69002B06DAB1
:102D0000FA69104B190001200B4B9847FEE7C046AB
:102D1000BD4608B080BDC046F1CA020030070020A1
:102D2000300900205B07000070170000F806002043
:102D300041CA0200A84C030061A70100D52A010086
:102D400031CB0200DC4C030080B584B000AF3B1DEA
:102D500018000B4B98473B1D37221A603B1D002281
:102D60005A603B1D01221A723B1D0322DA723B1D81
:102D700019000720034B9847C046BD4604B080BDEC
:102D8000A5310200D931020080B500AF064B002208
:102D900007211800054B984700210720044B98474E
:102DA000C046BD4680BDC046B52D0100A52D020020
:102DB000092E020090B583B000AFFC1D37200B4BED
:102DC000984703002370FB1D1B785A1E9341DBB20A
:102DD00001225340DBB21A1C01231340DAB2044B28
:102DE0001A70C046BD4603B090BDC046051B010029
:102DF000320B002080B500AF154A164B11001800A9
:102E0000154B9847031E08D0144B19000120144B92
:102E1000984702E00020134B98470E4B34229B5CEE
:102E2000002BF7D1104B9847104B01221A70104A13
:102E3000104B11001800104B9847104B9847104B3F
:102E40009847104B03221A70C046BD4680BDC0464D
:102E50005C440300F8060020E5CC02006048030053
:102E600061A7010095E80100511E020098040020AE
:102E70004523010011230100991E0200011E0200DA
:102E8000351F01007C04002090B585B000AF09E03B
:102E900000202B4B98472B4B18002B4B98470520B5
:102EA0002A4B984710202A4B984703001A00012309
:102EB0005340DBB2002B09D02020254B984703005C
:102EC0001A0001235340DBB2002BE1D1214B98477C
:102ED000FA239B0018001D4B98471F4B00221A70C5
:102EE0003B001E4A13CA13C33B0030221A700F2343
:102EF000FC1839001A4B0A2218001A4B9847030095
:102F000023700F23FB181B78002B08D00F23FB180E
:102F10001A78154B19000020144B984703E0144B06
:102F20001800144B98470E4B1800134B9847134B3F
:102F300000221A70124B9847C046BD4605B090BD9E
:102F400095E80100604300200DFA0200058A0100A7
:102F50000D1C0100511E020098040020344D030096
:102F6000CC060020D1A70200104D030061A701008C
:102F7000204D030091A601006DB402007C040020E6
:102F8000CD1A010080B500AF184B9847184B9847F1
:102F9000184A194B11001800184B9847184B9847BE
:102FA000184B34229B5C01225340DBB2002B0CD027
:102FB000154A144B11001800144B9847031E04D0F7
:102FC000134B19000120134B98470E4B34229B5C86
:102FD000002B04D0104B190001200E4B98470F4BCB
:102FE00001221A70C046BD4680BDC046511E020077
:102FF000912C0100CD26010099260100991E0200A6
:10300000011E0200F80600205C440300B1CB020060
:103010006048030061A70100404D03007C040020CC
:1030200080B500AF00200D4B98470D4B18000D4B9D
:1030300098470D4B98470D4B98470D4B98470D4BB4
:1030400098470D4B34229B5C002B04D00A4B642123
:1030500018000A4B9847C046BD4680BD95E8010060
:10306000604300200DFA02000D31010081300100A3
:1030700035320100E5320100F8060020E1CD020002
:1030800090B585B002AF184B1B68390000221800BC
:10309000164B98470300012B21D13B0000229B5E79
:1030A0001C003B0002229B5E19003B0004229B5E39
:1030B0000F4A10480193009123003F210E4CA04776
:1030C0000C4B18000D4B984704000A4A0C490D4858
:1030D000002301930123009323000B4CA047C0461B
:1030E000BD4603B090BDC046880400205978010059
:1030F0005C4D030018000020012B03005F2C03002F
:10310000004C0300F80600202DCD020090B58BB0D6
:1031100002AF394B1B680822B91800221800374B40
:1031200098470300012B63D1354B364A03CA03C3CA
:1031300012881A800023FB612DE00823FA18FB692E
:10314000D3181B78FF2B2AD00823FA18FB69D31851
:103150001B782D4A380003212C4CA0473A00284BFD
:10316000110018002A4B9847FB6901330822BA184E
:10317000D35CFF2B0CD0FB690133132B08DC3B0025
:103180002C221A803A001E4B11001800204B984741
:10319000FB690133FB61FB69132BCEDD00E0C04608
:1031A000174B18001B4B984703001A00144BD218FA
:1031B000194B1000190003231A00184B9847104BA5
:1031C00019000120164B9847164B19000120144B8B
:1031D00098470B4B18000F4B98470400084A1249B8
:1031E000124800230193012300932300104CA047B1
:1031F000C046BD4609B090BD840400205978010046
:1032000018000020604A0300804D0300012B0300DA
:10321000E52B03005F2C0300844D0300712803009D
:1032200061A70100884D03008C4D0300F8060020C3
:103230002DCD020090B589B002AF1E4B1B68102245
:10324000B918002218001C4B98470300012B2CD101
:103250003A691A4B1A49101C9847031C1A1C194B3F
:10326000FC218905101C9847031C1A1C1623FC1806
:10327000154B101C9847030023801623FB180022CF
:103280009B5E124A38001021114CA0473B001800E9
:10329000104B984704003A000F491048002301934F
:1032A0000123009323000E4CA047C046BD4607B043
:1032B00090BDC0469004002059780100D508030055
:1032C0000000C842D10103004D0E0300804D0300F1
:1032D000012B03005F2C0300A04D0300F806002023
:1032E0002DCD020090B587B002AF134B1B680E22A4
:1032F000B91800221800114B98470300012B17D171
:103300000E23FB1800229B5E0D4A381D08210D4C30
:10331000A0473B1D18000C4B984704003A1D0B4971
:103320000B4800230193012300932300094CA0477D
:10333000C046BD4605B090BD9404002059780100F8
:10334000804D0300012B03005F2C0300AC4D0300F4
:10335000F80600202DCD020090B58DB002AF786048
:1033600064208C4B98478C4B984700220421052001
:103370008A4B984702008A4B1A60002206210520DA
:10338000864B98470200874B1A60002214210220C6
:10339000824B98470200844B1A60002202210520CC
:1033A0007E4B98470200814B1A60002204210520C1
:1033B0007A4B984702007E4B1A60002202210520BA
:1033C000764B984702007B4B1A60754B1B68002BAD
:1033D00013D0744B1B68002B0FD0734B1B68002B52
:1033E0000BD0724B1B68002B07D0714B1B68002B56
:1033F00003D0704B1B68002B03D16F4B18006F4B31
:1034000098476F4B18006D4B98476E4B98476E4B23
:1034100098476E4B98476E4B98476E4B98476E4B4C
:1034200098470C23FB181822002118006B4B984773
:103430006B4B98470C23FB186A4A1A602723FC1829
:103440000C23FB181800684B9847030023702723B0
:10345000FB181B785BB2002B09D02723FB18002236
:103460009A56624B19000120614B9847FEE7614A6A
:10347000614B190001205E4B9847604B9847604AAA
:10348000604B11001800604B9847604A5948FF2371
:103490000093130002220B215D4CA04706E00020A0
:1034A0005C4B98475C4B18005C4B984702205C4B88
:1034B000984703001A0001235340DBB2002BEED1E2
:1034C000FA239B001800334B9847564B01221A7081
:1034D000544B1B785BB2012B0BD002DC002B05D0C8
:1034E00010E0022B08D0032B09D00BE04E4B98477D
:1034F0000CE04E4B984709E04D4B984706E04D4B8A
:10350000984703E0474B00221A70C0460B23FB1874
:1035100000221A70224B1B680B22B91800221800D7
:10352000454B98470300012B05D10B23FB181B7853
:103530005AB23C4B1A702623FB18404A12781A7074
:103540003F4B1B782622BA1812789A421ED02623A7
:10355000FB181B78002B0AD03A4A3B493B48002312
:103560000193012300930723394CA04709E0394A0E
:103570003549364800230193012300930823344C36
:10358000A0472F4B2622BA1812781A706420014BDC
:1035900098479DE7058A01009D1B0100F96C010019
:1035A0008004002088040020840400208C04002073
:1035B0009004002094040020B84D030091A601005F
:1035C000E04D0300DD25010019260100912C0100CA
:1035D000F9240100492D0100892D0100A7280300CD
:1035E000C9CB0100A5230100A1E60100FC4D0300A9
:1035F00061A701002C480300284E0300011E0200B1
:10360000CD26010099260100991E020020480300E2
:10361000B1E8010095E80100604300200DFA0200C6
:103620000D1C01007C040020852F010021300100C9
:10363000F52D0100892E010059780100320B002080
:10364000330B00204C4E0300544E0300F8060020BC
:103650002DCD0200684E030090B583B000AF02008C
:10366000FB1D1A70FB1D1B78032B06D8054B186831
:10367000F91D00230A22044CA047C046BD4603B0F2
:1036800090BDC04680040020A16F010090B583B0BA
:1036900000AF7860054B1868391D00230A22044CDE
:1036A000A04703001800BD4603B090BD9004002061
:1036B000A16F010090B583B000AF0200BB1D1A805E
:1036C000054B1868B91D00230A22044CA0470300CB
:1036D0001800BD4603B090BD94040020A16F010006
:1036E00090B585B002AF0B4B7B607B6818000A4B2E
:1036F000984704007A680949094800230193012387
:1037000000932300074CA04703001800BD4603B0F8
:1037100090BDC046744E03005F2C0300344C030080
:10372000F80600202DCD020090B583B002AF074A05
:103730000749084801230193012300930523064C00
:10374000A04703001800BD4601B090BD804E0300A5
:10375000884E0300F80600202DCD020090B583B0FE
:1037600000AFFC1D114B1800114B9847030023704C
:10377000FB1D1B78002B07D0FB1D1B78042B03D0EF
:103780000C4B18000C4B98470C4B18000A4B9847F1
:1037900002200B4B98470B4B1800074B9847032010
:1037A000074B9847C046BD4603B090BD944E0300FA
:1037B000A9B40200A84E030091A60100E04E030048
:1037C00059360100104F0300B0B5D6B000AF5823F2
:1037D000FF33FC18544998235B00FB1801221800A2
:1037E000524B9847030023705823FF33FB181B7874
:1037F000002B04D04E4B18004E4B984790E05823B6
:10380000FF33FC184C4B18004C4B984703002370B7
:103810005823FF33FB181B78002B09D05823FF33A4
:10382000FB181B78042B03D0454B1800414B9847DD
:103830005823FF33FC18404986235B00FB180A22FB
:1038400018003A4B9847030023705823FF33FB18A6
:103850001B78002B0AD098235B00FB181800394B0B
:103860009847394B1800334B984759E05823FF339A
:10387000FC1884235B00FD1880235A00391D98230F
:103880005B00F8182B00314DA84703002370582324
:10389000FF33FB181B78002B26D184235B00FB1819
:1038A0001B68002B20D084235B00FB181A68582368
:1038B000FF33FC187B1DFF33391D8620400038186C
:1038C000234DA847030023705823FF33FB181B78B0
:1038D000002B09D17B1DFF331A6884235B00FB1882
:1038E0001B689A4200D3C1E798235B00FB181800BD
:1038F000144B984786235B00FB181800114B984720
:103900005823FF33FB181B78002B04D1114B1800F0
:10391000084B984704E0104B1800064B9847C046E8
:10392000BD4656B0B0BDC046944E0300D1A70200BC
:10393000504F030091A60100784F0300A9B4020084
:10394000904F03006DB40200C84F030001AD0200A8
:103950009DAF0200F44F03002050030080B582B0F9
:1039600000AF78607B6800221A70C046BD4602B086
:1039700080BD000080B582B000AF02003960FB1D41
:103980001A70FB1D1B78012B0AD0022B0FD0002BC5
:1039900014D10E4B0D4A91693A680A439A610FE0BF
:1039A0000A4B0A4AD1693A680A43DA6108E0074BD0
:1039B000064A116A3A680A431A6201E0172300E0D6
:1039C00000231800BD4602B080BDC0460004004080
:1039D00080B582B000AF78607B6880221A707B6807
:1039E00000225A707B6801229A707B680022DA708C
:1039F000C046BD4602B080BD80B500AF054B9B7888
:103A0000DBB21A00022313405A1E9341DBB21800A6
:103A1000BD4680BD0020004180B500AF024B9847F5
:103A2000C046BD4680BDC046F92A020080B500AF41
:103A3000024B9847C046BD4680BDC0464D2B020094
:103A400080B582B000AF0200FB1D1A70074AFB1D53
:103A50001B7819001F230B40012199400B0019000E
:103A60008023D150C046BD4602B080BD00E100E0D9
:103A700080B584B000AF78607B681B68FB60FB6832
:103A8000DB69072213405A1E9341DBB21800BD4682
:103A900004B080BD80B582B000AF7860C0467B685E
:103AA0001800044B9847031EF9D1C046BD4602B02A
:103AB00080BDC046713A010080B584B000AF786027
:103AC0007B681B68FB607B681B6818000D4B984780
:103AD000030018000C4B98477B6818000B4B984765
:103AE000FB6883221A75FB6883221A76FB681B68C1
:103AF000022293431A00FB681A60C046BD4604B018
:103B000080BDC046CD3F0200413A0100953A010018
:103B1000F0B597B000AF786139610023FB630023F3
:103B20003B650023FB643B2310229446BC44634462
:103B300000221A707B691B68BB637B691B687B630F
:103B400023231022BA18D4187B6B1800C04B984757
:103B5000030023700C2310229446BC4463441800D5
:103B6000BC4B98473B69DB697B643B691B6A3B64E0
:103B70007B6C002B06D17B6B00211800B64B98475D
:103B800003007B647B6CDAB20C2310218C46BC44AE
:103B900063441A700C2310229446BC4463440222EE
:103BA0005A707B6C1B0CDBB20C2210218C46BC447F
:103BB000624411001800A94B98473B6C002B06D1BA
:103BC0007B6B01211800A44B984703003B643B6CBE
:103BD000DAB20C2310218C46BC4463441A700C23C7
:103BE00010229446BC44634402225A703B6C1B0C66
:103BF000DBB20C2210218C46BC4462441100180038
:103C0000964B98473B699A8A7B69DA803B69DA8AE6
:103C10007B691A813B691B7E002B03D1904B98472F
:103C2000031E02D080237B6501E000237B653B6996
:103C30001B69002B04D03B691B697A6D13437B65BC
:103C40003B699B687A6D13437B653B6924229B5CCF
:103C5000002B04D07B6D8022D20513437B653B692A
:103C60009B6A002B04D03B699B6A7A6D13437B658A
:103C70003B692C229B5C002B05D13B699A68802311
:103C80009B049A4204D17B6D8022120513437B650D
:103C90003B692D229B5C002B04D07B6D802212049B
:103CA00013437B653B692E229B5C002B04D07B6D0C
:103CB0008022D20313437B65BB6B1A687B6D1A436A
:103CC000BB6B1A60BB6B802252005A602323102208
:103CD0009446BC4463441B781433DBB21800614B38
:103CE00098470300FB623B691B68FA22920053432A
:103CF000BB623B695B68FA22920053437B623B697B
:103D00001B8E3B62584BF86A984705000E00564BD5
:103D1000B86A9847B860F960534BF86A9847534CB3
:103D2000534A544BA04703000C003B607C604E4B51
:103D3000386A984702000B004C4C38687968A047F5
:103D400003000C00180021004B4C00224B4BA047F5
:103D500003000C001A002300444CB868F968A0471F
:103D600003000C001A002300454C28003100A04736
:103D700003000C001D002600BB6A5A003A4B1000DD
:103D8000984702000B003C4C28003100A04703007C
:103D90000C00180021003A4C00223A4BA0470300C7
:103DA0000C001D002600BB6A5A002F4B10009847DC
:103DB00002000B00344C28003100A04703000C0027
:103DC00019002200314B0800110098470300FB63E3
:103DD0003B699A6880239B049A426AD1224BF86A15
:103DE0009847254C02000B00A04703000C001D0063
:103DF00026001D4B786A98471C4C0022244BA04794
:103E000003000C001A0023001F4C28003100A047BB
:103E100003000C0018002100194C0022194BA04788
:103E200003000C0019002200184B080011009847ED
:103E30000300FB64FB6C002B2ED0164B796AF86AEA
:103E4000984703009A1EFB6CD31A3B6531E0C046CD
:103E5000FD3E0200D1390100413D0200ED6C02003F
:103E6000F9390100B16A020049270300B51B0300BC
:103E700095D626E80B2E113E2D0F0300000024409E
:103E8000B52003000000F03F4D150300E1260300BC
:103E900000000840EDFD02007B6A5A00FB6AD3185F
:103EA0005A1E7B6A59001D4B100098470300013BC6
:103EB0003B65FB6BFF2B08DCFB6B002B05DB3B6DD5
:103EC000FF2B02DC3B6D002B06DA3B2310229446CD
:103ED000BC44634440221A703B2310229446BC44E5
:103EE00063441B78402B0ED0FB6BFF221A403B6DC6
:103EF0001B041900FF231B040B401343FA6C12062A
:103F00001A43BB6BDA603B2310229446BC446344E3
:103F10001B781800BD4617B0F0BDC046EDFD02008D
:103F200090B58BB000AFF860B9607A60FB68BA6892
:103F30001A60FB681B687B62FB681B6818003B4BC0
:103F4000984703003B623B6A0233FB613B6A1433D0
:103F5000BB610122FB699A40130019000220344B17
:103F600098471423FB181800324B98477B681A7B3C
:103F70001423FB181A70BB69DBB21422BA181100A3
:103F800018002D4B9847BB69DBB218002B4B9847A4
:103F90007B681B7B00211800294B98477B6A1B68B4
:103FA0000222134001D01C233BE07B6A1B680122E4
:103FB000134001D0052334E0FB681B681722BC18AE
:103FC00018001A4B9847030023701E4A1723FB184A
:103FD0001B78110018001C4B98471723FB181A7800
:103FE0001A4B9200F968D150FB6800221A76FB68E0
:103FF00000225A76FB6800225A83FB6800229A83CB
:10400000FB68252200219954FB6800221A627B6A12
:1040100014221A607A68FB68110018000C4B98474C
:1040200003001800BD460BB090BDC046FD3E020027
:10403000753901005D3901008D690200D169020006
:10404000B53C020035FA0000613F020038560020FE
:10405000113B010080B584B000AF78607B681B68BD
:10406000FB607B6818000F4B98477B6818000E4B6D
:1040700098470E4B98477B681B6818000C4B984775
:10408000030018000B4B98470B4B98477B681800B0
:10409000044B9847FB6801221A60C046BD4604B035
:1040A00080BDC046953A0100B93A0100193A0100B5
:1040B000CD3F0200096B02002D3A010080B584B0AB
:1040C00000AF78607B681B68FB60FB681B7EDBB21F
:1040D0001A00022313400BD0FB6802221A76FB68F9
:1040E0005B8B9BB21A000223134011D0412310E0D6
:1040F000FB685B8B9BB21A000423134008D0FB685B
:104100005B68C02292021A43FB685A60182300E0E1
:1041100000231800BD4604B080BD80B584B000AF58
:1041200078607B681B68BB600E23FB1800221A8036
:104130000FE00E23FB180E22BA18128801321A80E3
:104140007B681B890E22BA1812889A4201D3122367
:104150000EE0BB681B7EDBB21A000123134006D1C0
:10416000BB681B7EDBB21A0002231340E1D00023A0
:104170001800BD4604B080BD90B585B000AF786032
:104180000A00FB1C1A707B681B68FB60FB685B689D
:104190008022D2021A43FB685A60FB1C1A78FB6823
:1041A0005A620B23FC187B681800074B98470300E2
:1041B0002370FB6801221A760B23FB181B7818006A
:1041C000BD4605B090BDC0461B41010090B587B00B
:1041D00000AF786039607B681B68FB601423FB18B4
:1041E0003A6852881A801223FB1800221A80FB6852
:1041F0001B681B01DB0FDBB21A000B23FB18511EDF
:104200008A411A703B685B7A002B06D03B689A7A29
:104210007B6811001800854B9847FB685B68844AEF
:104220001A40FB685A603B681B7A002B42D03B68FF
:104230001B885A003B685B7A9B0313431A00802358
:104240001B021A43FB685A621723FC187B6818008C
:10425000784B984703002370FB685B68744A1A40E8
:10426000FB685A601723FB181B78002B07D1172314
:10427000FC187B681800704B9847030023701723C5
:10428000FB181B78002B11D13B681B881B0A9BB2C3
:10429000782213439BB25A003B685B7A9B0313431B
:1042A000012213431A00FB685A620FE01723FB1820
:1042B0001B78B6E03B681B885B0001221A433B6811
:1042C0005B7A9B0313431A00FB685A621723FC189E
:1042D0007B681800574B9847030023700B23FB188B
:1042E0001B78002B0BD03B685B88012B07D1FB6848
:1042F0005B688022D2021A43FB685A6005E0FB68C3
:104300005B684B4A1A40FB685A601723FB181B78FE
:10431000002B07D11723FC187B681800464B9847E1
:10432000030023701723FB181B78002B00D075E0C7
:104330004BE0FB685B8B9BB21A002023134001D13A
:1043400041236EE07B68DB7A002B1ED00B23FB1829
:104350001B7801225340DBB2002B04D01423FB183E
:104360001B88002B09D00B23FB181B78002B0CD0CB
:104370001423FB181B88012B07D1FB685B68802284
:10438000D2021A43FB685A601AE07B6818002B4B74
:1043900098473B685A681223FB181B88122179182A
:1043A000581C0880D318FA682821525CD2B21A70BF
:1043B0001723FC187B6818001E4B984703002370D6
:1043C0001723FB181B78002B09D11423FB181B881B
:1043D0001422BA18591E1180002BAAD100E0C04641
:1043E0007B689B7A002B0AD07B681800134B984798
:1043F000FB685B68C02292021A43FB685A607B68C4
:1044000018000E4B98473B685A681223FB181B880C
:10441000D318FA682821525CD2B21A701723FB18FD
:104420001B781800BD4607B090BDC0467941010019
:10443000FFFFFBFF1B410100BD400100953A010059
:1044400080B582B000AF786039607B689B8B9BB28F
:10445000002B01D005230CE07B6801229A727B6857
:104460000122DA723A687B6811001800034B984702
:1044700003001800BD4602B080BDC046CD4101001A
:1044800090B587B000AF786039607B681B68FB60CF
:104490001423FB183A6852881A807B681800514B25
:1044A00098473B685B7A002B06D03B689A7A7B681A
:1044B000110018004C4B9847FB685B684B4A1A4048
:1044C000FB685A603B681B7A002B0DD03B681B8849
:1044D0005A003B685B7A9B0313431A0080231B023C
:1044E0001A43FB685A6209E03B681B885A003B6824
:1044F0005B7A9B0313431A00FB685A621723FC186C
:104500007B6818003A4B9847030023701723FB1869
:104510001B78002B07D11723FC187B681800354B3C
:104520009847030023701723FB181B78002B52D1E8
:104530001223FB1800221A8033E0FB685B8B9BB2CE
:104540001A002023134001D1412347E07B68180063
:10455000244B98473B685A681223FB181B8812218A
:104560007918581C0880D3181978FB6828229954A8
:104570001723FC187B6818001D4B98470300237015
:104580001723FB181B78002B15D1FB685B8B9BB2A4
:104590001A000423134004D01723FB181E221A709C
:1045A0000AE01423FB181B881422BA18591E118024
:1045B000002BC2D100E0C0467B689B7A002B0AD05A
:1045C0007B681800074B9847FB685B68C022920223
:1045D0001A43FB685A601723FB181B781800BD4666
:1045E00007B090BD953A010079410100FFFFFBFF44
:1045F0001B410100BD40010080B582B000AF786072
:1046000039607B689B8B9BB2002B01D005230CE0AB
:104610007B6800229A727B680122DA723A687B68B2
:1046200011001800034B984703001800BD4602B064
:1046300080BDC0468144010080B500AF0020024B20
:104640009847C046BD4680BD7546010080B500AFA5
:104650000120024B9847C046BD4680BD754601000B
:1046600080B500AF0220024B9847C046BD4680BDD2
:104670007546010080B584B000AF0200FB1D1A70C2
:10468000FB1D1A78284B9200D358FB60FB681B680F
:104690009B7BDBB2FA68127E1340DAB2FB68597E6C
:1046A0000B23FB180A401A700B23FB181B780122FE
:1046B000134008D0FB689B68FA6810009847FB68B5
:1046C0001B6801229A730B23FB181B7802221340EC
:1046D00008D0FB68DB68FA6810009847FB681B6825
:1046E00002229A730B23FB181B781022134008D068
:1046F000FB681B69FA6810009847FB681B6810226A
:104700009A730B23FB181B782022134008D0FB68F8
:104710005B69FA6810009847FB681B6820229A734F
:10472000C046BD4604B080BDA044002080B584B022
:1047300000AF78600023FB607B68002B01D172B66C
:10474000FEE70820114B98470300BB60BB68002BB5
:1047500001D172B6FEE7BB68002B12D00C4B984714
:10476000BB687A681A60BB6800225A60094B1B68F4
:10477000BA685A60074BBA681A60074B984701231A
:10478000FB60FB681800BD4604B080BD416B0100B2
:10479000096A0100A40000202D6A010080B588B0DC
:1047A00000AFF860B9607A600123FB613D4B1B6884
:1047B000002B44D13B4B3C4A1A603AE0394B1B6812
:1047C0001B681B68BB61BB691800384B9847030026
:1047D0007B61FA687B69D3181B78202B05D0FA68B7
:1047E0007B69D3181B78002B1ED17A69B969FB68E5
:1047F00018002F4B9847031E16D12A4B1B681B68C5
:104800001B7B5BB2002B19DBFB681800294B984718
:1048100003001A00234B1B681B681B7B5BB29A4288
:104820000CD00023FB6109E01E4B1B685A681D4B2E
:104830001A601C4B1B68002BC0D100E0C046194B0E
:104840001B68002B0CD0FB69002B09D17A681A4930
:10485000BB681800194B9847124B00221A601CE0E5
:10486000104B1B68002B10D00E4B1B681B689B68FD
:10487000FA687968B86898470300FB61FB69002B08
:104880000BD1084B00221A6007E07A680C49BB681C
:1048900018000A4B98470023FB61FB691800BD46CE
:1048A00008B080BD340B00209C0000205F2C03006A
:1048B000B52C03002549010094500300D72C0300B8
:1048C000EC50030080B586B000AFF860B9607A6044
:1048D000114B1B68002B02D10F4B104A1A600E4B74
:1048E0001B681B685968BA68FB6818000C4B98472E
:1048F000094B1B685A68084B1A60074B1B68002B52
:1049000002D100237B6101E001237B617B691800F8
:10491000BD4606B080BDC046380B00209C0000207C
:10492000D72C030080B584B000AF78600F23FB184C
:1049300000221A700023BB6018E07B681B78202BD4
:104940000FD1BB68012B0ED00F23FB181B785BB275
:10495000DBB20133DAB20F23FB181A700123BB60FC
:1049600001E00023BB607B6801337B607B681B78C0
:10497000002BE2D1BB68012B09D10F23FB181B7858
:104980005BB2DBB2013BDAB20F23FB181A700F23C4
:10499000FB181B785BB21800BD4604B080BD000058
:1049A00080B582B000AF78607B681800034B9847F1
:1049B00003001800BD4602B080BDC04669810100F9
:1049C00080B582B000AF78607B681800034B9847D1
:1049D00003001800BD4602B080BDC04695810100AD
:1049E00080B582B000AF78607B681800034B9847B1
:1049F00003009BB21800BD4602B080BDC594010003
:104A000080B582B000AF78607B681800044B98478F
:104A100003001B0C9BB21800BD4602B080BDC0460F
:104A2000C594010080B582B000AF78600A00BB1C5D
:104A30001A807B681800084B984703001B0C1A0467
:104A4000BB1C1B881A437B6811001800034B984756
:104A5000C046BD4602B080BDC5940100ED94010082
:104A600080B582B000AF78600A00BB1C1A807B68FA
:104A70001800094B984703001B041A0CBB1C1B8829
:104A80001B041A437B6811001800044B9847C0466A
:104A9000BD4602B080BDC046C5940100ED94010042
:104AA00080B582B000AF78607B681800034B9847F0
:104AB00003009BB21800BD4602B080BDA1490100B1
:104AC00080B582B000AF78607B681800044B9847CF
:104AD00003001B0C9BB21800BD4602B080BDC0464F
